{
  "_format": "hh-sol-artifact-1",
  "contractName": "Test4",
  "sourceName": "contracts/Test4.sol",
  "abi": [
    {
      "inputs": [
        {
          "internalType": "string",
          "name": "_initBaseURI",
          "type": "string"
        }
      ],
      "stateMutability": "nonpayable",
      "type": "constructor"
    },
    {
      "inputs": [],
      "name": "ApprovalCallerNotOwnerNorApproved",
      "type": "error"
    },
    {
      "inputs": [],
      "name": "ApprovalQueryForNonexistentToken",
      "type": "error"
    },
    {
      "inputs": [],
      "name": "BalanceQueryForZeroAddress",
      "type": "error"
    },
    {
      "inputs": [],
      "name": "InsufficientFunds",
      "type": "error"
    },
    {
      "inputs": [],
      "name": "MintERC2309QuantityExceedsLimit",
      "type": "error"
    },
    {
      "inputs": [],
      "name": "MintToZeroAddress",
      "type": "error"
    },
    {
      "inputs": [],
      "name": "MintZeroQuantity",
      "type": "error"
    },
    {
      "inputs": [],
      "name": "OwnerQueryForNonexistentToken",
      "type": "error"
    },
    {
      "inputs": [],
      "name": "OwnershipNotInitializedForExtraData",
      "type": "error"
    },
    {
      "inputs": [],
      "name": "TransferCallerNotOwnerNorApproved",
      "type": "error"
    },
    {
      "inputs": [],
      "name": "TransferFromIncorrectOwner",
      "type": "error"
    },
    {
      "inputs": [],
      "name": "TransferToNonERC721ReceiverImplementer",
      "type": "error"
    },
    {
      "inputs": [],
      "name": "TransferToZeroAddress",
      "type": "error"
    },
    {
      "inputs": [],
      "name": "URIQueryForNonexistentToken",
      "type": "error"
    },
    {
      "inputs": [],
      "name": "maxPerWalletExceeded",
      "type": "error"
    },
    {
      "anonymous": false,
      "inputs": [
        {
          "indexed": true,
          "internalType": "address",
          "name": "owner",
          "type": "address"
        },
        {
          "indexed": true,
          "internalType": "address",
          "name": "approved",
          "type": "address"
        },
        {
          "indexed": true,
          "internalType": "uint256",
          "name": "tokenId",
          "type": "uint256"
        }
      ],
      "name": "Approval",
      "type": "event"
    },
    {
      "anonymous": false,
      "inputs": [
        {
          "indexed": true,
          "internalType": "address",
          "name": "owner",
          "type": "address"
        },
        {
          "indexed": true,
          "internalType": "address",
          "name": "operator",
          "type": "address"
        },
        {
          "indexed": false,
          "internalType": "bool",
          "name": "approved",
          "type": "bool"
        }
      ],
      "name": "ApprovalForAll",
      "type": "event"
    },
    {
      "anonymous": false,
      "inputs": [
        {
          "indexed": true,
          "internalType": "uint256",
          "name": "fromTokenId",
          "type": "uint256"
        },
        {
          "indexed": false,
          "internalType": "uint256",
          "name": "toTokenId",
          "type": "uint256"
        },
        {
          "indexed": true,
          "internalType": "address",
          "name": "from",
          "type": "address"
        },
        {
          "indexed": true,
          "internalType": "address",
          "name": "to",
          "type": "address"
        }
      ],
      "name": "ConsecutiveTransfer",
      "type": "event"
    },
    {
      "anonymous": false,
      "inputs": [
        {
          "indexed": true,
          "internalType": "address",
          "name": "previousOwner",
          "type": "address"
        },
        {
          "indexed": true,
          "internalType": "address",
          "name": "newOwner",
          "type": "address"
        }
      ],
      "name": "OwnershipTransferred",
      "type": "event"
    },
    {
      "anonymous": false,
      "inputs": [
        {
          "indexed": true,
          "internalType": "address",
          "name": "from",
          "type": "address"
        },
        {
          "indexed": true,
          "internalType": "address",
          "name": "to",
          "type": "address"
        },
        {
          "indexed": true,
          "internalType": "uint256",
          "name": "tokenId",
          "type": "uint256"
        }
      ],
      "name": "Transfer",
      "type": "event"
    },
    {
      "inputs": [],
      "name": "MaxforWhitelisted",
      "outputs": [
        {
          "internalType": "uint256",
          "name": "",
          "type": "uint256"
        }
      ],
      "stateMutability": "view",
      "type": "function"
    },
    {
      "inputs": [],
      "name": "MaxperTxWL",
      "outputs": [
        {
          "internalType": "uint256",
          "name": "",
          "type": "uint256"
        }
      ],
      "stateMutability": "view",
      "type": "function"
    },
    {
      "inputs": [],
      "name": "MaxperWallet",
      "outputs": [
        {
          "internalType": "uint256",
          "name": "",
          "type": "uint256"
        }
      ],
      "stateMutability": "view",
      "type": "function"
    },
    {
      "inputs": [],
      "name": "MaxperWalletWL",
      "outputs": [
        {
          "internalType": "uint256",
          "name": "",
          "type": "uint256"
        }
      ],
      "stateMutability": "view",
      "type": "function"
    },
    {
      "inputs": [
        {
          "internalType": "uint256",
          "name": "tokens",
          "type": "uint256"
        },
        {
          "internalType": "bytes32[]",
          "name": "merkleProof",
          "type": "bytes32[]"
        }
      ],
      "name": "WLMint",
      "outputs": [],
      "stateMutability": "payable",
      "type": "function"
    },
    {
      "inputs": [
        {
          "internalType": "address",
          "name": "to",
          "type": "address"
        },
        {
          "internalType": "uint256",
          "name": "tokenId",
          "type": "uint256"
        }
      ],
      "name": "approve",
      "outputs": [],
      "stateMutability": "payable",
      "type": "function"
    },
    {
      "inputs": [
        {
          "internalType": "address",
          "name": "owner",
          "type": "address"
        }
      ],
      "name": "balanceOf",
      "outputs": [
        {
          "internalType": "uint256",
          "name": "",
          "type": "uint256"
        }
      ],
      "stateMutability": "view",
      "type": "function"
    },
    {
      "inputs": [],
      "name": "baseExtension",
      "outputs": [
        {
          "internalType": "string",
          "name": "",
          "type": "string"
        }
      ],
      "stateMutability": "view",
      "type": "function"
    },
    {
      "inputs": [],
      "name": "baseURI",
      "outputs": [
        {
          "internalType": "string",
          "name": "",
          "type": "string"
        }
      ],
      "stateMutability": "view",
      "type": "function"
    },
    {
      "inputs": [],
      "name": "cost",
      "outputs": [
        {
          "internalType": "uint256",
          "name": "",
          "type": "uint256"
        }
      ],
      "stateMutability": "view",
      "type": "function"
    },
    {
      "inputs": [],
      "name": "firstCost",
      "outputs": [
        {
          "internalType": "uint256",
          "name": "",
          "type": "uint256"
        }
      ],
      "stateMutability": "view",
      "type": "function"
    },
    {
      "inputs": [
        {
          "internalType": "uint256",
          "name": "tokenId",
          "type": "uint256"
        }
      ],
      "name": "getApproved",
      "outputs": [
        {
          "internalType": "address",
          "name": "",
          "type": "address"
        }
      ],
      "stateMutability": "view",
      "type": "function"
    },
    {
      "inputs": [
        {
          "internalType": "uint256",
          "name": "_mintAmount",
          "type": "uint256"
        },
        {
          "internalType": "address",
          "name": "destination",
          "type": "address"
        }
      ],
      "name": "gift",
      "outputs": [],
      "stateMutability": "nonpayable",
      "type": "function"
    },
    {
      "inputs": [
        {
          "internalType": "address",
          "name": "owner",
          "type": "address"
        },
        {
          "internalType": "address",
          "name": "operator",
          "type": "address"
        }
      ],
      "name": "isApprovedForAll",
      "outputs": [
        {
          "internalType": "bool",
          "name": "",
          "type": "bool"
        }
      ],
      "stateMutability": "view",
      "type": "function"
    },
    {
      "inputs": [],
      "name": "maxSupply",
      "outputs": [
        {
          "internalType": "uint256",
          "name": "",
          "type": "uint256"
        }
      ],
      "stateMutability": "view",
      "type": "function"
    },
    {
      "inputs": [],
      "name": "merkleRoot",
      "outputs": [
        {
          "internalType": "bytes32",
          "name": "",
          "type": "bytes32"
        }
      ],
      "stateMutability": "view",
      "type": "function"
    },
    {
      "inputs": [],
      "name": "name",
      "outputs": [
        {
          "internalType": "string",
          "name": "",
          "type": "string"
        }
      ],
      "stateMutability": "view",
      "type": "function"
    },
    {
      "inputs": [],
      "name": "notRevealedUri",
      "outputs": [
        {
          "internalType": "string",
          "name": "",
          "type": "string"
        }
      ],
      "stateMutability": "view",
      "type": "function"
    },
    {
      "inputs": [
        {
          "internalType": "address",
          "name": "owner",
          "type": "address"
        }
      ],
      "name": "numberMinted",
      "outputs": [
        {
          "internalType": "uint256",
          "name": "",
          "type": "uint256"
        }
      ],
      "stateMutability": "view",
      "type": "function"
    },
    {
      "inputs": [],
      "name": "owner",
      "outputs": [
        {
          "internalType": "address",
          "name": "",
          "type": "address"
        }
      ],
      "stateMutability": "view",
      "type": "function"
    },
    {
      "inputs": [
        {
          "internalType": "uint256",
          "name": "tokenId",
          "type": "uint256"
        }
      ],
      "name": "ownerOf",
      "outputs": [
        {
          "internalType": "address",
          "name": "",
          "type": "address"
        }
      ],
      "stateMutability": "view",
      "type": "function"
    },
    {
      "inputs": [
        {
          "internalType": "bool",
          "name": "_state",
          "type": "bool"
        }
      ],
      "name": "pause",
      "outputs": [],
      "stateMutability": "nonpayable",
      "type": "function"
    },
    {
      "inputs": [],
      "name": "paused",
      "outputs": [
        {
          "internalType": "bool",
          "name": "",
          "type": "bool"
        }
      ],
      "stateMutability": "view",
      "type": "function"
    },
    {
      "inputs": [],
      "name": "publicSale",
      "outputs": [
        {
          "internalType": "bool",
          "name": "",
          "type": "bool"
        }
      ],
      "stateMutability": "view",
      "type": "function"
    },
    {
      "inputs": [
        {
          "internalType": "uint256",
          "name": "tokens",
          "type": "uint256"
        },
        {
          "internalType": "bytes32[]",
          "name": "merkleProof",
          "type": "bytes32[]"
        }
      ],
      "name": "publicSaleMint",
      "outputs": [],
      "stateMutability": "payable",
      "type": "function"
    },
    {
      "inputs": [],
      "name": "renounceOwnership",
      "outputs": [],
      "stateMutability": "nonpayable",
      "type": "function"
    },
    {
      "inputs": [
        {
          "internalType": "bool",
          "name": "_state",
          "type": "bool"
        }
      ],
      "name": "reveal",
      "outputs": [],
      "stateMutability": "nonpayable",
      "type": "function"
    },
    {
      "inputs": [],
      "name": "revealed",
      "outputs": [
        {
          "internalType": "bool",
          "name": "",
          "type": "bool"
        }
      ],
      "stateMutability": "view",
      "type": "function"
    },
    {
      "inputs": [
        {
          "internalType": "address",
          "name": "from",
          "type": "address"
        },
        {
          "internalType": "address",
          "name": "to",
          "type": "address"
        },
        {
          "internalType": "uint256",
          "name": "tokenId",
          "type": "uint256"
        }
      ],
      "name": "safeTransferFrom",
      "outputs": [],
      "stateMutability": "payable",
      "type": "function"
    },
    {
      "inputs": [
        {
          "internalType": "address",
          "name": "from",
          "type": "address"
        },
        {
          "internalType": "address",
          "name": "to",
          "type": "address"
        },
        {
          "internalType": "uint256",
          "name": "tokenId",
          "type": "uint256"
        },
        {
          "internalType": "bytes",
          "name": "_data",
          "type": "bytes"
        }
      ],
      "name": "safeTransferFrom",
      "outputs": [],
      "stateMutability": "payable",
      "type": "function"
    },
    {
      "inputs": [
        {
          "internalType": "address",
          "name": "operator",
          "type": "address"
        },
        {
          "internalType": "bool",
          "name": "approved",
          "type": "bool"
        }
      ],
      "name": "setApprovalForAll",
      "outputs": [],
      "stateMutability": "nonpayable",
      "type": "function"
    },
    {
      "inputs": [
        {
          "internalType": "string",
          "name": "_newBaseExtension",
          "type": "string"
        }
      ],
      "name": "setBaseExtension",
      "outputs": [],
      "stateMutability": "nonpayable",
      "type": "function"
    },
    {
      "inputs": [
        {
          "internalType": "string",
          "name": "_newBaseURI",
          "type": "string"
        }
      ],
      "name": "setBaseURI",
      "outputs": [],
      "stateMutability": "nonpayable",
      "type": "function"
    },
    {
      "inputs": [
        {
          "internalType": "uint256",
          "name": "_newCost",
          "type": "uint256"
        }
      ],
      "name": "setCost",
      "outputs": [],
      "stateMutability": "nonpayable",
      "type": "function"
    },
    {
      "inputs": [
        {
          "internalType": "uint256",
          "name": "_limit",
          "type": "uint256"
        }
      ],
      "name": "setMaxPerWallet",
      "outputs": [],
      "stateMutability": "nonpayable",
      "type": "function"
    },
    {
      "inputs": [
        {
          "internalType": "uint256",
          "name": "_limit",
          "type": "uint256"
        }
      ],
      "name": "setMaxperWalletWL",
      "outputs": [],
      "stateMutability": "nonpayable",
      "type": "function"
    },
    {
      "inputs": [
        {
          "internalType": "uint256",
          "name": "_newsupply",
          "type": "uint256"
        }
      ],
      "name": "setMaxsupply",
      "outputs": [],
      "stateMutability": "nonpayable",
      "type": "function"
    },
    {
      "inputs": [
        {
          "internalType": "bytes32",
          "name": "_merkleRoot",
          "type": "bytes32"
        }
      ],
      "name": "setMerkleRoot",
      "outputs": [],
      "stateMutability": "nonpayable",
      "type": "function"
    },
    {
      "inputs": [
        {
          "internalType": "string",
          "name": "_notRevealedURI",
          "type": "string"
        }
      ],
      "name": "setNotRevealedURI",
      "outputs": [],
      "stateMutability": "nonpayable",
      "type": "function"
    },
    {
      "inputs": [
        {
          "internalType": "uint256",
          "name": "_newwlCost",
          "type": "uint256"
        }
      ],
      "name": "setWlCost",
      "outputs": [],
      "stateMutability": "nonpayable",
      "type": "function"
    },
    {
      "inputs": [
        {
          "internalType": "bytes4",
          "name": "interfaceId",
          "type": "bytes4"
        }
      ],
      "name": "supportsInterface",
      "outputs": [
        {
          "internalType": "bool",
          "name": "",
          "type": "bool"
        }
      ],
      "stateMutability": "view",
      "type": "function"
    },
    {
      "inputs": [],
      "name": "symbol",
      "outputs": [
        {
          "internalType": "string",
          "name": "",
          "type": "string"
        }
      ],
      "stateMutability": "view",
      "type": "function"
    },
    {
      "inputs": [
        {
          "internalType": "bool",
          "name": "_state",
          "type": "bool"
        }
      ],
      "name": "togglepublicSale",
      "outputs": [],
      "stateMutability": "nonpayable",
      "type": "function"
    },
    {
      "inputs": [
        {
          "internalType": "bool",
          "name": "_state",
          "type": "bool"
        }
      ],
      "name": "togglewlMint",
      "outputs": [],
      "stateMutability": "nonpayable",
      "type": "function"
    },
    {
      "inputs": [
        {
          "internalType": "uint256",
          "name": "tokenId",
          "type": "uint256"
        }
      ],
      "name": "tokenURI",
      "outputs": [
        {
          "internalType": "string",
          "name": "",
          "type": "string"
        }
      ],
      "stateMutability": "view",
      "type": "function"
    },
    {
      "inputs": [],
      "name": "totalSupply",
      "outputs": [
        {
          "internalType": "uint256",
          "name": "",
          "type": "uint256"
        }
      ],
      "stateMutability": "view",
      "type": "function"
    },
    {
      "inputs": [
        {
          "internalType": "address",
          "name": "from",
          "type": "address"
        },
        {
          "internalType": "address",
          "name": "to",
          "type": "address"
        },
        {
          "internalType": "uint256",
          "name": "tokenId",
          "type": "uint256"
        }
      ],
      "name": "transferFrom",
      "outputs": [],
      "stateMutability": "payable",
      "type": "function"
    },
    {
      "inputs": [
        {
          "internalType": "address",
          "name": "newOwner",
          "type": "address"
        }
      ],
      "name": "transferOwnership",
      "outputs": [],
      "stateMutability": "nonpayable",
      "type": "function"
    },
    {
      "inputs": [],
      "name": "withdraw",
      "outputs": [],
      "stateMutability": "payable",
      "type": "function"
    },
    {
      "inputs": [],
      "name": "wlCost",
      "outputs": [
        {
          "internalType": "uint256",
          "name": "",
          "type": "uint256"
        }
      ],
      "stateMutability": "view",
      "type": "function"
    },
    {
      "inputs": [],
      "name": "wlMint",
      "outputs": [
        {
          "internalType": "bool",
          "name": "",
          "type": "bool"
        }
      ],
      "stateMutability": "view",
      "type": "function"
    }
  ],
  "bytecode": "0x60c06040526005608081905264173539b7b760d91b60a09081526200002891600b91906200020a565b50662386f26fc10000600d8190556000600e819055600f919091556115b360105560046011556002601281905560135560056014556015805463ffffffff191663010001001790556016553480156200008057600080fd5b50604051620029b3380380620029b3833981016040819052620000a391620002c6565b6040518060400160405280600581526020016415195cdd0d60da1b81525060405180604001604052806002815260200161150d60f21b8152508160029080519060200190620000f49291906200020a565b5080516200010a9060039060208401906200020a565b50506001600055506200011d3362000134565b60016009556200012d8162000186565b50620003df565b600880546001600160a01b038381166001600160a01b0319831681179093556040519116919082907f8be0079c531659141344cd1fd0a4f28419497f9722a3daafe3b4186f6b6457e090600090a35050565b62000190620001a9565b8051620001a590600a9060208401906200020a565b5050565b6008546001600160a01b03163314620002085760405162461bcd60e51b815260206004820181905260248201527f4f776e61626c653a2063616c6c6572206973206e6f7420746865206f776e6572604482015260640160405180910390fd5b565b8280546200021890620003a2565b90600052602060002090601f0160209004810192826200023c576000855562000287565b82601f106200025757805160ff191683800117855562000287565b8280016001018555821562000287579182015b82811115620002875782518255916020019190600101906200026a565b506200029592915062000299565b5090565b5b808211156200029557600081556001016200029a565b634e487b7160e01b600052604160045260246000fd5b60006020808385031215620002da57600080fd5b82516001600160401b0380821115620002f257600080fd5b818501915085601f8301126200030757600080fd5b8151818111156200031c576200031c620002b0565b604051601f8201601f19908116603f01168101908382118183101715620003475762000347620002b0565b8160405282815288868487010111156200036057600080fd5b600093505b8284101562000384578484018601518185018701529285019262000365565b82841115620003965760008684830101525b98975050505050505050565b600181811c90821680620003b757607f821691505b60208210811415620003d957634e487b7160e01b600052602260045260246000fd5b50919050565b6125c480620003ef6000396000f3fe6080604052600436106102e45760003560e01c8063715018a611610190578063c87b56dd116100dc578063e5170b1611610095578063f12f6d5d1161006f578063f12f6d5d14610830578063f2c4ce1e14610850578063f2fde38b14610870578063f3257cdd1461089057600080fd5b8063e5170b16146107b1578063e985e9c5146107c7578063f05398021461081057600080fd5b8063c87b56dd14610705578063d5abeb0114610725578063d70a28d11461073b578063da3ef23f14610751578063dc33e68114610771578063e268e4d31461079157600080fd5b806395d89b4111610149578063aeeae3a611610123578063aeeae3a6146106b1578063b88d4fde146106c7578063bd7a1998146106da578063c6682862146106f057600080fd5b806395d89b4114610666578063a22cb4651461067b578063a6e566b11461069b57600080fd5b8063715018a6146105b35780637cb64759146105c85780637f9fa411146105e857806383a076be146106085780638da5cb5b14610628578063940cd05b1461064657600080fd5b806333bc1c5c1161024f57806351830227116102085780636352211e116101e25780636352211e1461054857806366f384a7146105685780636c0360eb1461057e57806370a082311461059357600080fd5b806351830227146104ef57806355f804b31461050e5780635c975abb1461052e57600080fd5b806333bc1c5c1461046057806336728c0f146104815780633ccfd60b1461049457806342842e0e1461049c57806344a0d68a146104af57806345c490c0146104cf57600080fd5b806313faede6116102a157806313faede6146103c2578063149835a0146103e657806318160ddd14610406578063226fe1c01461042457806323b872dd146104375780632eb4a7ab1461044a57600080fd5b806301ffc9a7146102e957806302329a291461031e57806306fdde0314610340578063081812fc14610362578063081c8c441461039a578063095ea7b3146103af575b600080fd5b3480156102f557600080fd5b50610309610304366004611f3b565b6108b0565b60405190151581526020015b60405180910390f35b34801561032a57600080fd5b5061033e610339366004611f6d565b610902565b005b34801561034c57600080fd5b5061035561091d565b6040516103159190611fe0565b34801561036e57600080fd5b5061038261037d366004611ff3565b6109af565b6040516001600160a01b039091168152602001610315565b3480156103a657600080fd5b506103556109f3565b61033e6103bd366004612023565b610a81565b3480156103ce57600080fd5b506103d8600d5481565b604051908152602001610315565b3480156103f257600080fd5b5061033e610401366004611ff3565b610b21565b34801561041257600080fd5b506103d8600154600054036000190190565b61033e61043236600461204d565b610b2e565b61033e6104453660046120cc565b610ec4565b34801561045657600080fd5b506103d860165481565b34801561046c57600080fd5b50601554610309906301000000900460ff1681565b61033e61048f36600461204d565b611055565b61033e611375565b61033e6104aa3660046120cc565b611402565b3480156104bb57600080fd5b5061033e6104ca366004611ff3565b611422565b3480156104db57600080fd5b5061033e6104ea366004611f6d565b61142f565b3480156104fb57600080fd5b5060155461030990610100900460ff1681565b34801561051a57600080fd5b5061033e610529366004612194565b611453565b34801561053a57600080fd5b506015546103099060ff1681565b34801561055457600080fd5b50610382610563366004611ff3565b611472565b34801561057457600080fd5b506103d860145481565b34801561058a57600080fd5b5061035561147d565b34801561059f57600080fd5b506103d86105ae3660046121dd565b61148a565b3480156105bf57600080fd5b5061033e6114d9565b3480156105d457600080fd5b5061033e6105e3366004611ff3565b6114ed565b3480156105f457600080fd5b506015546103099062010000900460ff1681565b34801561061457600080fd5b5061033e6106233660046121f8565b6114fa565b34801561063457600080fd5b506008546001600160a01b0316610382565b34801561065257600080fd5b5061033e610661366004611f6d565b6115c5565b34801561067257600080fd5b506103556115e7565b34801561068757600080fd5b5061033e610696366004612224565b6115f6565b3480156106a757600080fd5b506103d860135481565b3480156106bd57600080fd5b506103d860125481565b61033e6106d536600461224e565b611662565b3480156106e657600080fd5b506103d860115481565b3480156106fc57600080fd5b506103556116ac565b34801561071157600080fd5b50610355610720366004611ff3565b6116b9565b34801561073157600080fd5b506103d860105481565b34801561074757600080fd5b506103d8600f5481565b34801561075d57600080fd5b5061033e61076c366004612194565b611829565b34801561077d57600080fd5b506103d861078c3660046121dd565b611844565b34801561079d57600080fd5b5061033e6107ac366004611ff3565b61184f565b3480156107bd57600080fd5b506103d8600e5481565b3480156107d357600080fd5b506103096107e23660046122ca565b6001600160a01b03918216600090815260076020908152604080832093909416825291909152205460ff1690565b34801561081c57600080fd5b5061033e61082b366004611ff3565b61185c565b34801561083c57600080fd5b5061033e61084b366004611ff3565b611869565b34801561085c57600080fd5b5061033e61086b366004612194565b611876565b34801561087c57600080fd5b5061033e61088b3660046121dd565b611891565b34801561089c57600080fd5b5061033e6108ab366004611f6d565b61190a565b60006301ffc9a760e01b6001600160e01b0319831614806108e157506380ac58cd60e01b6001600160e01b03198316145b806108fc5750635b5e139f60e01b6001600160e01b03198316145b92915050565b61090a611930565b6015805460ff1916911515919091179055565b60606002805461092c906122f4565b80601f0160208091040260200160405190810160405280929190818152602001828054610958906122f4565b80156109a55780601f1061097a576101008083540402835291602001916109a5565b820191906000526020600020905b81548152906001019060200180831161098857829003601f168201915b5050505050905090565b60006109ba8261198a565b6109d7576040516333d1c03960e21b815260040160405180910390fd5b506000908152600660205260409020546001600160a01b031690565b600c8054610a00906122f4565b80601f0160208091040260200160405190810160405280929190818152602001828054610a2c906122f4565b8015610a795780601f10610a4e57610100808354040283529160200191610a79565b820191906000526020600020905b815481529060010190602001808311610a5c57829003601f168201915b505050505081565b6000610a8c82611472565b9050336001600160a01b03821614610ac557610aa881336107e2565b610ac5576040516367d9dca160e11b815260040160405180910390fd5b60008281526006602052604080822080546001600160a01b0319166001600160a01b0387811691821790925591518593918516917f8c5be1e5ebec7d5bd14f71427d1e84f3dd0314c0f7b2291e5b200ac8c7c3b92591a4505050565b610b29611930565b601055565b60026009541415610b5a5760405162461bcd60e51b8152600401610b519061232f565b60405180910390fd5b600260095560155460ff1615610bac5760405162461bcd60e51b81526020600482015260176024820152761bdbdc1cc818dbdb9d1c9858dd081a5cc81c185d5cd959604a1b6044820152606401610b51565b60155462010000900460ff16610c045760405162461bcd60e51b815260206004820152601960248201527f776c4d696e74204861736e2774207374617274656420796574000000000000006044820152606401610b51565b610c75828280806020026020016040519081016040528093929190818152602001838360200280828437600092019190915250506016546040516001600160601b03193360601b16602082015290925060340190505b604051602081830303815290604052805190602001206119bf565b610cc15760405162461bcd60e51b815260206004820152601860248201527f20596f7520617265206e6f7420696e20746865205465616d00000000000000006044820152606401610b51565b6000610cd4600154600054036000190190565b905060125484610d0d610ce43390565b6001600160a01b03166000908152600560205260409081902054901c67ffffffffffffffff1690565b610d17919061237c565b1115610d655760405162461bcd60e51b815260206004820152601b60248201527f4d6178204e4654205065722057616c6c657420657863656564656400000000006044820152606401610b51565b60008411610d855760405162461bcd60e51b8152600401610b5190612394565b601054610d92858361237c565b1115610dcd5760405162461bcd60e51b815260206004820152600a60248201526915d94814dbdb191bdd5d60b21b6044820152606401610b51565b601354841115610e1f5760405162461bcd60e51b815260206004820152601860248201527f6d6178206d696e742070657220547820657863656564656400000000000000006044820152606401610b51565b600184610e2b33610ce4565b610e35919061237c565b11158015610e4f575083600e54610e4c91906123cb565b34105b15610e6d5760405163356680b760e01b815260040160405180910390fd5b600184610e7933610ce4565b610e83919061237c565b118015610e915750600f5434105b15610eaf5760405163356680b760e01b815260040160405180910390fd5b610eb933856119d5565b505060016009555050565b6000610ecf826119ef565b9050836001600160a01b0316816001600160a01b031614610f025760405162a1148160e81b815260040160405180910390fd5b60008281526006602052604090208054338082146001600160a01b03881690911417610f4f57610f3286336107e2565b610f4f57604051632ce44b5f60e11b815260040160405180910390fd5b6001600160a01b038516610f7657604051633a954ecd60e21b815260040160405180910390fd5b8015610f8157600082555b6001600160a01b038681166000908152600560205260408082208054600019019055918716808252919020805460010190554260a01b17600160e11b17600085815260046020526040902055600160e11b831661100c576001840160008181526004602052604090205461100a57600054811461100a5760008181526004602052604090208490555b505b83856001600160a01b0316876001600160a01b03167fddf252ad1be2c89b69c2b068fc378daa952ba7f163c4a11628f55a4df523b3ef60405160405180910390a4505050505050565b600260095414156110785760405162461bcd60e51b8152600401610b519061232f565b600260095560155460ff16156110ca5760405162461bcd60e51b81526020600482015260176024820152761bdbdc1cc818dbdb9d1c9858dd081a5cc81c185d5cd959604a1b6044820152606401610b51565b6015546301000000900460ff166111235760405162461bcd60e51b815260206004820152601760248201527f53616c65204861736e27742073746172746564207965740000000000000000006044820152606401610b51565b6000611136600154600054036000190190565b9050600084116111585760405162461bcd60e51b8152600401610b5190612394565b6011548411156111aa5760405162461bcd60e51b815260206004820152601b60248201527f6d6178206d696e7420616d6f756e7420545820657863656564656400000000006044820152606401610b51565b6010546111b7858361237c565b11156111f25760405162461bcd60e51b815260206004820152600a60248201526915d94814dbdb191bdd5d60b21b6044820152606401610b51565b83600d5461120091906123cb565b3410156112445760405162461bcd60e51b8152602060048201526012602482015271696e73756666696369656e742066756e647360701b6044820152606401610b51565b61129e838380806020026020016040519081016040528093929190818152602001838360200280828437600092019190915250506016546040516001600160601b03193360601b1660208201529092506034019050610c5a565b80156112be5750601454846112b233610ce4565b6112bc919061237c565b115b156112dc57604051633e152f5760e21b815260040160405180910390fd5b611336838380806020026020016040519081016040528093929190818152602001838360200280828437600092019190915250506016546040516001600160601b03193360601b1660208201529092506034019050610c5a565b15801561135757506011548461134b33610ce4565b611355919061237c565b115b15610eaf57604051633e152f5760e21b815260040160405180910390fd5b61137d611930565b600260095414156113a05760405162461bcd60e51b8152600401610b519061232f565b6002600955604051600090339047908381818185875af1925050503d80600081146113e7576040519150601f19603f3d011682016040523d82523d6000602084013e6113ec565b606091505b50509050806113fa57600080fd5b506001600955565b61141d83838360405180602001604052806000815250611662565b505050565b61142a611930565b600d55565b611437611930565b60158054911515620100000262ff000019909216919091179055565b61145b611930565b805161146e90600a906020840190611e8c565b5050565b60006108fc826119ef565b600a8054610a00906122f4565b60006001600160a01b0382166114b3576040516323d3ad8160e21b815260040160405180910390fd5b506001600160a01b031660009081526005602052604090205467ffffffffffffffff1690565b6114e1611930565b6114eb6000611a58565b565b6114f5611930565b601655565b611502611930565b600260095414156115255760405162461bcd60e51b8152600401610b519061232f565b6002600955816115475760405162461bcd60e51b8152600401610b5190612394565b600061155a600154600054036000190190565b60105490915061156a848361237c565b11156115b15760405162461bcd60e51b81526020600482015260166024820152751b585e08139195081b1a5b5a5d08195e18d95959195960521b6044820152606401610b51565b6115bb82846119d5565b5050600160095550565b6115cd611930565b601580549115156101000261ff0019909216919091179055565b60606003805461092c906122f4565b3360008181526007602090815260408083206001600160a01b03871680855290835292819020805460ff191686151590811790915590519081529192917f17307eab39ab6107e8899845ad3d59bd9653f200f220920489ca2b5937696c31910160405180910390a35050565b61166d848484610ec4565b6001600160a01b0383163b156116a65761168984848484611aaa565b6116a6576040516368d2bf6b60e11b815260040160405180910390fd5b50505050565b600b8054610a00906122f4565b60606116c48261198a565b6117295760405162461bcd60e51b815260206004820152603060248201527f455243373231414d657461646174613a2055524920717565727920666f72206e60448201526f37b732bc34b9ba32b73a103a37b5b2b760811b6064820152608401610b51565b601554610100900460ff166117ca57600c8054611745906122f4565b80601f0160208091040260200160405190810160405280929190818152602001828054611771906122f4565b80156117be5780601f10611793576101008083540402835291602001916117be565b820191906000526020600020905b8154815290600101906020018083116117a157829003601f168201915b50505050509050919050565b60006117d4611ba2565b905060008151116117f45760405180602001604052806000815250611822565b806117fe84611bb1565b600b604051602001611812939291906123ea565b6040516020818303038152906040525b9392505050565b611831611930565b805161146e90600b906020840190611e8c565b60006108fc82610ce4565b611857611930565b601155565b611864611930565b601255565b611871611930565b600f55565b61187e611930565b805161146e90600c906020840190611e8c565b611899611930565b6001600160a01b0381166118fe5760405162461bcd60e51b815260206004820152602660248201527f4f776e61626c653a206e6577206f776e657220697320746865207a65726f206160448201526564647265737360d01b6064820152608401610b51565b61190781611a58565b50565b611912611930565b6015805491151563010000000263ff00000019909216919091179055565b6008546001600160a01b031633146114eb5760405162461bcd60e51b815260206004820181905260248201527f4f776e61626c653a2063616c6c6572206973206e6f7420746865206f776e65726044820152606401610b51565b60008160011115801561199e575060005482105b80156108fc575050600090815260046020526040902054600160e01b161590565b6000826119cc8584611caf565b14949350505050565b61146e828260405180602001604052806000815250611cfc565b60008180600111611a3f57600054811015611a3f57600081815260046020526040902054600160e01b8116611a3d575b80611822575060001901600081815260046020526040902054611a1f565b505b604051636f96cda160e11b815260040160405180910390fd5b600880546001600160a01b038381166001600160a01b0319831681179093556040519116919082907f8be0079c531659141344cd1fd0a4f28419497f9722a3daafe3b4186f6b6457e090600090a35050565b604051630a85bd0160e11b81526000906001600160a01b0385169063150b7a0290611adf9033908990889088906004016124ae565b602060405180830381600087803b158015611af957600080fd5b505af1925050508015611b29575060408051601f3d908101601f19168201909252611b26918101906124eb565b60015b611b84573d808015611b57576040519150601f19603f3d011682016040523d82523d6000602084013e611b5c565b606091505b508051611b7c576040516368d2bf6b60e11b815260040160405180910390fd5b805181602001fd5b6001600160e01b031916630a85bd0160e11b1490505b949350505050565b6060600a805461092c906122f4565b606081611bd55750506040805180820190915260018152600360fc1b602082015290565b8160005b8115611bff5780611be981612508565b9150611bf89050600a83612539565b9150611bd9565b60008167ffffffffffffffff811115611c1a57611c1a612108565b6040519080825280601f01601f191660200182016040528015611c44576020820181803683370190505b5090505b8415611b9a57611c5960018361254d565b9150611c66600a86612564565b611c7190603061237c565b60f81b818381518110611c8657611c86612578565b60200101906001600160f81b031916908160001a905350611ca8600a86612539565b9450611c48565b600081815b8451811015611cf457611ce082868381518110611cd357611cd3612578565b6020026020010151611d69565b915080611cec81612508565b915050611cb4565b509392505050565b611d068383611d95565b6001600160a01b0383163b1561141d576000548281035b611d306000868380600101945086611aaa565b611d4d576040516368d2bf6b60e11b815260040160405180910390fd5b818110611d1d578160005414611d6257600080fd5b5050505050565b6000818310611d85576000828152602084905260409020611822565b5060009182526020526040902090565b60005481611db65760405163b562e8dd60e01b815260040160405180910390fd5b6001600160a01b03831660008181526005602090815260408083208054680100000000000000018802019055848352600490915281206001851460e11b4260a01b178317905582840190839083907fddf252ad1be2c89b69c2b068fc378daa952ba7f163c4a11628f55a4df523b3ef8180a4600183015b818114611e6557808360007fddf252ad1be2c89b69c2b068fc378daa952ba7f163c4a11628f55a4df523b3ef600080a4600101611e2d565b5081611e8357604051622e076360e81b815260040160405180910390fd5b60005550505050565b828054611e98906122f4565b90600052602060002090601f016020900481019282611eba5760008555611f00565b82601f10611ed357805160ff1916838001178555611f00565b82800160010185558215611f00579182015b82811115611f00578251825591602001919060010190611ee5565b50611f0c929150611f10565b5090565b5b80821115611f0c5760008155600101611f11565b6001600160e01b03198116811461190757600080fd5b600060208284031215611f4d57600080fd5b813561182281611f25565b80358015158114611f6857600080fd5b919050565b600060208284031215611f7f57600080fd5b61182282611f58565b60005b83811015611fa3578181015183820152602001611f8b565b838111156116a65750506000910152565b60008151808452611fcc816020860160208601611f88565b601f01601f19169290920160200192915050565b6020815260006118226020830184611fb4565b60006020828403121561200557600080fd5b5035919050565b80356001600160a01b0381168114611f6857600080fd5b6000806040838503121561203657600080fd5b61203f8361200c565b946020939093013593505050565b60008060006040848603121561206257600080fd5b83359250602084013567ffffffffffffffff8082111561208157600080fd5b818601915086601f83011261209557600080fd5b8135818111156120a457600080fd5b8760208260051b85010111156120b957600080fd5b6020830194508093505050509250925092565b6000806000606084860312156120e157600080fd5b6120ea8461200c565b92506120f86020850161200c565b9150604084013590509250925092565b634e487b7160e01b600052604160045260246000fd5b600067ffffffffffffffff8084111561213957612139612108565b604051601f8501601f19908116603f0116810190828211818310171561216157612161612108565b8160405280935085815286868601111561217a57600080fd5b858560208301376000602087830101525050509392505050565b6000602082840312156121a657600080fd5b813567ffffffffffffffff8111156121bd57600080fd5b8201601f810184136121ce57600080fd5b611b9a8482356020840161211e565b6000602082840312156121ef57600080fd5b6118228261200c565b6000806040838503121561220b57600080fd5b8235915061221b6020840161200c565b90509250929050565b6000806040838503121561223757600080fd5b6122408361200c565b915061221b60208401611f58565b6000806000806080858703121561226457600080fd5b61226d8561200c565b935061227b6020860161200c565b925060408501359150606085013567ffffffffffffffff81111561229e57600080fd5b8501601f810187136122af57600080fd5b6122be8782356020840161211e565b91505092959194509250565b600080604083850312156122dd57600080fd5b6122e68361200c565b915061221b6020840161200c565b600181811c9082168061230857607f821691505b6020821081141561232957634e487b7160e01b600052602260045260246000fd5b50919050565b6020808252601f908201527f5265656e7472616e637947756172643a207265656e7472616e742063616c6c00604082015260600190565b634e487b7160e01b600052601160045260246000fd5b6000821982111561238f5761238f612366565b500190565b6020808252601b908201527f6e65656420746f206d696e74206174206c656173742031204e46540000000000604082015260600190565b60008160001904831182151516156123e5576123e5612366565b500290565b6000845160206123fd8285838a01611f88565b8551918401916124108184848a01611f88565b8554920191600090600181811c908083168061242d57607f831692505b85831081141561244b57634e487b7160e01b85526022600452602485fd5b80801561245f57600181146124705761249d565b60ff1985168852838801955061249d565b60008b81526020902060005b858110156124955781548a82015290840190880161247c565b505083880195505b50939b9a5050505050505050505050565b6001600160a01b03858116825284166020820152604081018390526080606082018190526000906124e190830184611fb4565b9695505050505050565b6000602082840312156124fd57600080fd5b815161182281611f25565b600060001982141561251c5761251c612366565b5060010190565b634e487b7160e01b600052601260045260246000fd5b60008261254857612548612523565b500490565b60008282101561255f5761255f612366565b500390565b60008261257357612573612523565b500690565b634e487b7160e01b600052603260045260246000fdfea26469706673582212201a3d8d0f31c9217b7da6e9d473641dc180eebd97e7db522b2aa161262493d91064736f6c63430008090033",
  "linkReferences": {},
  "deployedLinkReferences": {}
}